:020000040800F2
:100000009006002031020008590600085106000839
:1000100055060008E9040008190F00080000000058
:100020000000000000000000000000003D09000882
:10003000ED04000800000000F10700082D0A000888
:100040004B0200084B0200084B0200084B0200085C
:100050004B0200084B0200084B0200084B0200084C
:100060004B0200084B0200084B0200084B0200083C
:100070004B0200084B0200084B0200084B0200082C
:100080004B0200084B0200084B0200084B0200081C
:100090004B0200084B0200084B0200084B0200080C
:1000A0004B0200084B0200084B0200084B020008FC
:1000B0004B0200084B0200084B0200084B020008EC
:1000C0004B0200084B0200084B0200084B020008DC
:1000D0004B0200084B0200084B0200084B020008CC
:1000E0004B0200084B0200084B020008250B0008D9
:1000F0004B0200084B0200084B0200084B020008AC
:100100004B0200084B0200084B0200084B0200089B
:100110004B0200084B0200084B0200084B0200088B
:100120004B0200084B0200084B0200084B0200087B
:100130004B0200084B0200084B0200084B0200086B
:100140004B0200084B0200084B0200084B0200085B
:100150004B0200084B0200084B0200084B0200084B
:100160004B0200084B0200084B0200084B0200083B
:100170004B0200084B0200084B0200084B0200082B
:100180004B0200084B02000800F002F800F041F8B2
:100190000AA090E8000C82448344AAF10107DA45E2
:1001A00001D100F036F8AFF2090EBAE80F0013F0F3
:1001B000010F18BFFB1A43F001031847300E00006F
:1001C000500E0000103A24BF78C878C1FAD8520700
:1001D00024BF30C830C144BF04680C6070470000C1
:1001E0000023002400250026103A28BF78C1FBD840
:1001F000520728BF30C148BF0B607047642900F028
:100200007980002070471FB500F0EAFE1FBD10B5D1
:1002100010BD00F037F91146FFF7F5FF00F092FE30
:1002200000F055F903B4FFF7F2FF03BC00F076FECF
:100230000948804709480047FEE7FEE7FEE7FEE77A
:10024000FEE7FEE7FEE7FEE7FEE7FEE704480549B6
:10025000054A064B70470000310A00088901000872
:1002600090000020900600209002002090020020C4
:10027000704700000FB4044910B503AA029800F0BB
:10028000D3F810BC5DF814FB000000202DE9F0410C
:100290000E460446002020622046E168884730B3BD
:1002A000252805D0D4E901219047206A401CF2E7B7
:1002B000E168204600278847050018D0A5F14100D5
:1002C000192802D820354FF40067324629462046C7
:1002D0002760FFF793FF40B1012804D0F61D26F0F8
:1002E00007060836D8E7361DD6E72846DAE7206A3B
:1002F000BDE8F0812DE9F04106460024106875291B
:10030000314616A510D0AFF30080002802DA404233
:1003100013A507E031688A0701D512A502E0490755
:1003200004D511A5012401E0AFF3008000210A22C9
:1003300006F1240709E0B0FBF2FCB0FBF2F302FB8C
:100340001C00303078541846491C0028F3D123464D
:100350002A463046BDE8F04100F00CB8000000002D
:100360002D0000002B0000002000000070477047A7
:10037000704770472DE9F0470D469946924604466E
:1003800000F124080168880604D5E06921F0100115
:10039000216000E00120A84201DD471B00E00027AA
:1003A000A1697A1902EB0900081AA0612078C00639
:1003B00002D42046AFF30080002608E0D4E90121F2
:1003C0001AF806009047206A401C761C20624E45B1
:1003D000F4DB2078C0060AD52046AFF3008006E0A3
:1003E000D4E9012130209047206A401C2062381E49
:1003F000A7F10107F4DC07E0D4E9012118F80500B2
:100400009047206A401C2062281EA5F10105F3DCFC
:100410002046AFF300802078000602D50220BDE818
:10042000F0870120FBE70000074B70B50D467B44C9
:1004300000F011F80446284600F020F810B14FF003
:10044000FF3070BD204670BDEF0A000001694A1CF4
:1004500002610878704700B58FB0CDE90131002105
:10046000059105497944CDE9031011466846FFF727
:100470000DFF0FB000BD0000E5FFFFFF007B00F0A7
:1004800080007047754600F02BF8AE4605006946BF
:10049000534620F00700854618B020B5FFF7D6FE7A
:1004A000BDE820404FF000064FF000074FF0000875
:1004B0004FF0000B21F00701AC46ACE8C009ACE8F6
:1004C000C009ACE8C009ACE8C0098D46704710B55A
:1004D0000446AFF300802046BDE81040FFF7A2BEFF
:1004E000004870473000002000BFFEE77047F0B5BD
:1004F0000A4600210023002400BF3DE0012505FA43
:1005000001F3156805EA03049C4234D105684F00E5
:100510000326BE40B543056015794E00B540066818
:10052000354305601579012D02D01579022D16D1BC
:1005300085684F000326BE40B543856055794E005F
:10054000B540866835438560456801268E40B543D1
:100550004560456896798E40B6B235434560C568BA
:100560004F000326BE40B543C560D5794E00B54067
:10057000C6683543C560491C1029BFD3F0BDF0B52E
:10058000002300244D07ED0E02FA05F3CE1000F112
:10059000200555F826504E07F70E0F26BE40B543EE
:1005A000CF1000F1200646F82750CE1000F12005AC
:1005B00055F8265045EA0304CE1000F1200545F811
:1005C0002640F0BD1CB50121084600F013F94FF498
:1005D000C060009002208DF804008DF80500694687
:1005E0000648FFF784FF072209210448FFF7C7FFE9
:1005F00007220A210148FFF7C2FF1CBD000002408C
:1006000010B5FFF7DFFF00F007F80121014800F007
:10061000FBFB10BD001001401FB50121102000F0B0
:1006200009F94FF4E13000900020ADF80400ADF876
:100630000600ADF80800ADF80C000C20ADF80A007B
:100640006946024800F0FAFB1FBD0000001001409F
:1006500000BFFEE700BFFEE77047000070B5002155
:1006600000230F22C4781CB3174C246804F4E06400
:10067000C4F5E064C4F30721C1F10404E3B20A4104
:1006800044789C40E1B28478144021430C07210E49
:100690000E4C05786155047804F01F050124AC4028
:1006A00005786D11AD0005F1E025C5F8004109E0C0
:1006B000047804F01F050124AC40054D067876113E
:1006C00045F8264070BD00000CED00E000E400E0BD
:1006D00080E100E002490143024A116070470000D6
:1006E0000000FA050CED00E000B589B001214020C2
:1006F00000F090F80121022000F07CF84FF48040D7
:10070000079002208DF8200003208DF821000020A2
:100710008DF822008DF8230007A92C48FFF7E7FE8B
:1007200009220E212948FFF72AFF5320ADF81000B7
:100730000020ADF812004CF24F3005900020ADF8CB
:10074000180004A9224800F01DFB0020ADF80000AD
:100750000220ADF802000120ADF804000020ADF841
:1007600006000520ADF808006946194800F098FA1F
:100770005021174800F0D2FA0421154800F0E0FAA1
:100780008021134800F0D3FA01220221104800F022
:100790007EFA02210E4800F065FA2B208DF80C003D
:1007A00002208DF80D0000208DF80E0001208DF83C
:1007B0000F0003A8FFF752FF0121054800F055FA8A
:1007C0004FF4A060FFF786FF09B000BD00040240AF
:1007D000001800400146002005E0044A32F81020CD
:1007E00021F81020401C0428F7DB7047040000208B
:1007F0007047000029B1064A12680243044B1A6090
:1008000004E0034A12688243014B1A6070470000FB
:100810003038024029B1064A12680243044B1A607C
:1008200004E0034A12688243014B1A6070470000DB
:100830004038024029B1064A12680243044B1A604C
:1008400004E0034A12688243014B1A6070470000BB
:1008500044380240F0B50021002200240225002681
:100860000223324F3F6807F00C0121B1042905D063
:10087000082937D105E02E4F076036E02D4F07607D
:1008800033E02A4F3F1F3F68C7F38056274F3F1F73
:100890003F6807F03F036EB1264FB7FBF3F7DFF871
:1008A0008CC0ACF1040CDCF800C0CCF3881C07FB56
:1008B0000CF40CE01E4FB7FBF3F7DFF870C0ACF19F
:1008C000040CDCF800C0CCF3881C07FB0CF4174FB9
:1008D0003F1F3F68C7F301477F1C7D00B4FBF5F75E
:1008E000076002E0124F076000BF00BF0F4F3F6874
:1008F00007F0F0010909104F7A5C0768D74047609C
:100900000A4F3F6807F4E051890A0B4F7A5C476849
:10091000D7408760054F3F6807F46041490B064F99
:100920007A5C4768D740C760F0BD000008380240D5
:100930000024F40000127A0020000020704700001C
:100940000CB50020019000903448006840F48030DD
:100950003249086000BF3148006800F40030009060
:100960000198401C0190009818B90198B0F5A04F6B
:10097000F1D12A48006800F4003010B10120009045
:1009800001E0002000900098012846D12348403023
:10099000006840F0805021494031086020480068DC
:1009A00040F440401E4908601C48083000681B495C
:1009B000083108600846006840F4004008600846B6
:1009C000006840F4A05008601648091F0860081F1E
:1009D000006840F08070091F086000BF0F48006881
:1009E00000F000700028F9D040F205700E49086050
:1009F0000A480830006820F0030008490831086000
:100A00000846006840F00200086000BF0348083054
:100A1000006800F00C000828F8D10CBD0038024036
:100A20000070004008544007003C0240704700003E
:100A300010B51548006840F4700013490860134869
:100A4000006840F001001149086000200F4908319A
:100A500008600E4800680E4908400C4908600D48BF
:100A6000091D0860081F006820F48020091F086025
:100A7000002006490C310860FFF762FF4FF000606C
:100A800001498039086010BD88ED00E0003802405F
:100A9000FFFFF6FE10300024F0B50C46154600218D
:100AA0000022068C4FF6FE773E400684018B028CB6
:100AB0004FF60C7631407E1C06EA03162E43314376
:100AC0004FF6F576324044F001063243018302844A
:100AD000F0BDF0B50C461546002100220026078C1B
:100AE0004FF6EF7C07EA0C070784018B028C4FF668
:100AF000FF7707EA041640F6FF4739404FF6FF77C5
:100B000007EA033739434FF6FF7707EA05273943EA
:100B10004FF65F773A4046F010073A43018302846C
:100B2000F0BD000010B50221494800F09BF848488C
:100B300000F0A7F847490860454800F0A5F8464985
:100B400008604448008884B244480078052871D27F
:100B5000DFE800F003182E445A003E48006841F2D6
:100B60008831884209D33D480078401C3B490870D1
:100B70000021374800F0EDF803E00021344800F090
:100B8000E8F857E03348006840F6B83188420ED89C
:100B900032480078401C314908702E480088A0F582
:100BA000C8702F4908800021294800F0D2F841E0A0
:100BB0002848006840F6B83188420ED827480078A7
:100BC000401C2649087023480088A0F5C8702449B5
:100BD000488000211E4800F0BCF82BE01D4800684A
:100BE00040F6B83188420ED81C480078401C1B499A
:100BF000087018480088A0F5C8701949888000213D
:100C0000134800F0A6F815E01248006840F6B83125
:100C100088420ED811480078401C104908700D48D1
:100C20000088A0F5C8700E49C8800021084800F06F
:100C300090F800BF00BF09480078042806DD0020B6
:100C4000064908700021024800F083F810BD00003A
:100C50000018004010000020140000200C000020AC
:100C600004000020CA430282704721B1028842F08A
:100C70000102028004E002884FF6FE731A400280EF
:100C800070470146486B70470146886B70471AB140
:100C900083890B43838102E083898B43838170477F
:100CA0002DE9F04105460C4600260127608808B969
:100CB000022600E00026A088012801D1022700E0DA
:100CC00001272088A0B92389A28861882846FFF7D8
:100CD000E3FEE188284600F03EF823893A46314693
:100CE0002846FFF7F6FEE188284600F03DF813E0BD
:100CF0002389A28861882846FFF7EBFEE188284611
:100D000000F032F823893A4631462846FFF7C4FE00
:100D1000E188284600F01FF8BDE8F0810A4600216E
:100D200001894FF68F731940114301817047028981
:100D30004FF67F731A40028102890A43028170478D
:100D400002894FF6F8731A40028102890A43028130
:100D5000704741627047028B4FF6F3731A4002836B
:100D6000028B0A4302837047028B4FF2FF331A4013
:100D70000283028B4FF6FF7303EA01231A430283B7
:100D80007047000000220288184B98420ED0184B82
:100D900098420BD0B0F1804F08D0164B984205D046
:100DA000154B984202D0154B984204D14FF68F73E1
:100DB0001A404B881A43124B984207D0114B984265
:100DC00004D04FF6FF431A400B891A4302804B6848
:100DD000C3620B880385054B984202D0044B9842AE
:100DE00001D18B7A03860123838270470000014082
:100DF000000401400004004000080040000C0040D6
:100E0000001000400014004021B1828942F40052D9
:100E1000828104E082894DF6FF731A408281704717
:100E200002460020B1F5007F00D100BF13880B40BF
:100E30000BB1012000E00020704700002DE9FF47C2
:100E400005460E460024A14600BFA046B08900B169
:100E500000BF2C8A24F44054F08804432C82AC89CF
:100E600041F20C608443B08831890843718908439A
:100E70000443AC81AC8A24F44074B0890443AC824E
:100E80006846FFF7E7FC2048854202D01F488542AC
:100E900002D1DDF80C9001E0DDF80890A88900F49B
:100EA000004040B109EBC90000EB0910316849006E
:100EB000B0FBF1F707E009EBC90000EB091031685E
:100EC0008900B0FBF1F76420B7FBF0F004012009C2
:100ED000642101FB1078A88900F4004040B1322061
:100EE00000EBC800B0FBF1F000F00700044308E09D
:100EF000322000EB08106421B0FBF1F000F00F008D
:100F000004432C81BDE8FF8700100140001401401C
:100F1000C1F308028280704700BFFEE700BF704740
:100F200070B504460D46E1B20548FFF7F1FF00BF7A
:100F300080210348FFF774FF0028F9D0204670BDD8
:100F4000001001400EB5FFF75BFB10A0FFF792F910
:100F500000BF15A0FFF78EF9FFF7C6FB17A0FFF73C
:100F600089F911E001A8FFF735FCBDF80A000090EF
:100F7000BDF80830BDF80620BDF8041015A0FFF735
:100F800079F908A0FFF776F9ECE7000048575F55BC
:100F900053415254315F496E6974205375636365E0
:100FA0007373210D0A00000053797374656D496EE7
:100FB0006974205374617274210D0A00537973743B
:100FC000656D496E69742053756363657373210D94
:100FD0000A00000025642C25642C25642C2564005F
:100FE0004FF04070E1EE100A704700000C1000084E
:100FF0000000002030000000C40100083C10000880
:101000003000002060060000E00100080000000041
:1010100000000000000000000000000000000000D0
:1010200000000000000000000000000000000000C0
:0C10300001020304010203040607080982
:040000050800018965
:00000001FF
